{
  "_format": "hh-sol-artifact-1",
  "contractName": "NFTMarketplace",
  "sourceName": "contracts/NFTMarketplace.sol",
  "abi": [
    {
      "inputs": [],
      "stateMutability": "nonpayable",
      "type": "constructor"
    },
    {
      "anonymous": false,
      "inputs": [
        {
          "indexed": true,
          "internalType": "address",
          "name": "owner",
          "type": "address"
        },
        {
          "indexed": true,
          "internalType": "address",
          "name": "approved",
          "type": "address"
        },
        {
          "indexed": true,
          "internalType": "uint256",
          "name": "tokenId",
          "type": "uint256"
        }
      ],
      "name": "Approval",
      "type": "event"
    },
    {
      "anonymous": false,
      "inputs": [
        {
          "indexed": true,
          "internalType": "address",
          "name": "owner",
          "type": "address"
        },
        {
          "indexed": true,
          "internalType": "address",
          "name": "operator",
          "type": "address"
        },
        {
          "indexed": false,
          "internalType": "bool",
          "name": "approved",
          "type": "bool"
        }
      ],
      "name": "ApprovalForAll",
      "type": "event"
    },
    {
      "anonymous": false,
      "inputs": [
        {
          "indexed": true,
          "internalType": "uint256",
          "name": "tokenId",
          "type": "uint256"
        },
        {
          "indexed": false,
          "internalType": "address",
          "name": "seller",
          "type": "address"
        },
        {
          "indexed": false,
          "internalType": "address",
          "name": "owner",
          "type": "address"
        },
        {
          "indexed": false,
          "internalType": "address",
          "name": "creator",
          "type": "address"
        },
        {
          "indexed": false,
          "internalType": "uint256",
          "name": "price",
          "type": "uint256"
        },
        {
          "indexed": false,
          "internalType": "bool",
          "name": "sold",
          "type": "bool"
        }
      ],
      "name": "MarketItemCreated",
      "type": "event"
    },
    {
      "anonymous": false,
      "inputs": [
        {
          "indexed": true,
          "internalType": "address",
          "name": "from",
          "type": "address"
        },
        {
          "indexed": true,
          "internalType": "address",
          "name": "to",
          "type": "address"
        },
        {
          "indexed": true,
          "internalType": "uint256",
          "name": "tokenId",
          "type": "uint256"
        }
      ],
      "name": "Transfer",
      "type": "event"
    },
    {
      "inputs": [
        {
          "internalType": "address",
          "name": "to",
          "type": "address"
        },
        {
          "internalType": "uint256",
          "name": "tokenId",
          "type": "uint256"
        }
      ],
      "name": "approve",
      "outputs": [],
      "stateMutability": "nonpayable",
      "type": "function"
    },
    {
      "inputs": [
        {
          "internalType": "address",
          "name": "owner",
          "type": "address"
        }
      ],
      "name": "balanceOf",
      "outputs": [
        {
          "internalType": "uint256",
          "name": "",
          "type": "uint256"
        }
      ],
      "stateMutability": "view",
      "type": "function"
    },
    {
      "inputs": [
        {
          "internalType": "uint256",
          "name": "tokenId",
          "type": "uint256"
        }
      ],
      "name": "createMarketSale",
      "outputs": [],
      "stateMutability": "payable",
      "type": "function"
    },
    {
      "inputs": [
        {
          "internalType": "string",
          "name": "tokenURI",
          "type": "string"
        },
        {
          "internalType": "uint256",
          "name": "price",
          "type": "uint256"
        }
      ],
      "name": "createToken",
      "outputs": [
        {
          "internalType": "uint256",
          "name": "",
          "type": "uint256"
        }
      ],
      "stateMutability": "payable",
      "type": "function"
    },
    {
      "inputs": [],
      "name": "fetchItemsListed",
      "outputs": [
        {
          "components": [
            {
              "internalType": "uint256",
              "name": "tokenId",
              "type": "uint256"
            },
            {
              "internalType": "address payable",
              "name": "seller",
              "type": "address"
            },
            {
              "internalType": "address payable",
              "name": "owner",
              "type": "address"
            },
            {
              "internalType": "address payable",
              "name": "creator",
              "type": "address"
            },
            {
              "internalType": "uint256",
              "name": "price",
              "type": "uint256"
            },
            {
              "internalType": "bool",
              "name": "sold",
              "type": "bool"
            }
          ],
          "internalType": "struct NFTMarketplace.MarketItem[]",
          "name": "",
          "type": "tuple[]"
        }
      ],
      "stateMutability": "view",
      "type": "function"
    },
    {
      "inputs": [],
      "name": "fetchMarketItems",
      "outputs": [
        {
          "components": [
            {
              "internalType": "uint256",
              "name": "tokenId",
              "type": "uint256"
            },
            {
              "internalType": "address payable",
              "name": "seller",
              "type": "address"
            },
            {
              "internalType": "address payable",
              "name": "owner",
              "type": "address"
            },
            {
              "internalType": "address payable",
              "name": "creator",
              "type": "address"
            },
            {
              "internalType": "uint256",
              "name": "price",
              "type": "uint256"
            },
            {
              "internalType": "bool",
              "name": "sold",
              "type": "bool"
            }
          ],
          "internalType": "struct NFTMarketplace.MarketItem[]",
          "name": "",
          "type": "tuple[]"
        }
      ],
      "stateMutability": "view",
      "type": "function"
    },
    {
      "inputs": [],
      "name": "fetchMyCreatedNFTs",
      "outputs": [
        {
          "components": [
            {
              "internalType": "uint256",
              "name": "tokenId",
              "type": "uint256"
            },
            {
              "internalType": "address payable",
              "name": "seller",
              "type": "address"
            },
            {
              "internalType": "address payable",
              "name": "owner",
              "type": "address"
            },
            {
              "internalType": "address payable",
              "name": "creator",
              "type": "address"
            },
            {
              "internalType": "uint256",
              "name": "price",
              "type": "uint256"
            },
            {
              "internalType": "bool",
              "name": "sold",
              "type": "bool"
            }
          ],
          "internalType": "struct NFTMarketplace.MarketItem[]",
          "name": "",
          "type": "tuple[]"
        }
      ],
      "stateMutability": "view",
      "type": "function"
    },
    {
      "inputs": [],
      "name": "fetchMyNFTs",
      "outputs": [
        {
          "components": [
            {
              "internalType": "uint256",
              "name": "tokenId",
              "type": "uint256"
            },
            {
              "internalType": "address payable",
              "name": "seller",
              "type": "address"
            },
            {
              "internalType": "address payable",
              "name": "owner",
              "type": "address"
            },
            {
              "internalType": "address payable",
              "name": "creator",
              "type": "address"
            },
            {
              "internalType": "uint256",
              "name": "price",
              "type": "uint256"
            },
            {
              "internalType": "bool",
              "name": "sold",
              "type": "bool"
            }
          ],
          "internalType": "struct NFTMarketplace.MarketItem[]",
          "name": "",
          "type": "tuple[]"
        }
      ],
      "stateMutability": "view",
      "type": "function"
    },
    {
      "inputs": [
        {
          "internalType": "uint256",
          "name": "tokenId",
          "type": "uint256"
        }
      ],
      "name": "getApproved",
      "outputs": [
        {
          "internalType": "address",
          "name": "",
          "type": "address"
        }
      ],
      "stateMutability": "view",
      "type": "function"
    },
    {
      "inputs": [],
      "name": "getListingFee",
      "outputs": [
        {
          "internalType": "uint256",
          "name": "",
          "type": "uint256"
        }
      ],
      "stateMutability": "view",
      "type": "function"
    },
    {
      "inputs": [
        {
          "internalType": "address",
          "name": "owner",
          "type": "address"
        },
        {
          "internalType": "address",
          "name": "operator",
          "type": "address"
        }
      ],
      "name": "isApprovedForAll",
      "outputs": [
        {
          "internalType": "bool",
          "name": "",
          "type": "bool"
        }
      ],
      "stateMutability": "view",
      "type": "function"
    },
    {
      "inputs": [],
      "name": "name",
      "outputs": [
        {
          "internalType": "string",
          "name": "",
          "type": "string"
        }
      ],
      "stateMutability": "view",
      "type": "function"
    },
    {
      "inputs": [
        {
          "internalType": "uint256",
          "name": "tokenId",
          "type": "uint256"
        }
      ],
      "name": "ownerOf",
      "outputs": [
        {
          "internalType": "address",
          "name": "",
          "type": "address"
        }
      ],
      "stateMutability": "view",
      "type": "function"
    },
    {
      "inputs": [
        {
          "internalType": "uint256",
          "name": "tokenId",
          "type": "uint256"
        },
        {
          "internalType": "uint256",
          "name": "price",
          "type": "uint256"
        }
      ],
      "name": "resellToken",
      "outputs": [],
      "stateMutability": "payable",
      "type": "function"
    },
    {
      "inputs": [
        {
          "internalType": "address",
          "name": "from",
          "type": "address"
        },
        {
          "internalType": "address",
          "name": "to",
          "type": "address"
        },
        {
          "internalType": "uint256",
          "name": "tokenId",
          "type": "uint256"
        }
      ],
      "name": "safeTransferFrom",
      "outputs": [],
      "stateMutability": "nonpayable",
      "type": "function"
    },
    {
      "inputs": [
        {
          "internalType": "address",
          "name": "from",
          "type": "address"
        },
        {
          "internalType": "address",
          "name": "to",
          "type": "address"
        },
        {
          "internalType": "uint256",
          "name": "tokenId",
          "type": "uint256"
        },
        {
          "internalType": "bytes",
          "name": "data",
          "type": "bytes"
        }
      ],
      "name": "safeTransferFrom",
      "outputs": [],
      "stateMutability": "nonpayable",
      "type": "function"
    },
    {
      "inputs": [
        {
          "internalType": "address",
          "name": "operator",
          "type": "address"
        },
        {
          "internalType": "bool",
          "name": "approved",
          "type": "bool"
        }
      ],
      "name": "setApprovalForAll",
      "outputs": [],
      "stateMutability": "nonpayable",
      "type": "function"
    },
    {
      "inputs": [
        {
          "internalType": "bytes4",
          "name": "interfaceId",
          "type": "bytes4"
        }
      ],
      "name": "supportsInterface",
      "outputs": [
        {
          "internalType": "bool",
          "name": "",
          "type": "bool"
        }
      ],
      "stateMutability": "view",
      "type": "function"
    },
    {
      "inputs": [],
      "name": "symbol",
      "outputs": [
        {
          "internalType": "string",
          "name": "",
          "type": "string"
        }
      ],
      "stateMutability": "view",
      "type": "function"
    },
    {
      "inputs": [
        {
          "internalType": "uint256",
          "name": "tokenId",
          "type": "uint256"
        }
      ],
      "name": "tokenURI",
      "outputs": [
        {
          "internalType": "string",
          "name": "",
          "type": "string"
        }
      ],
      "stateMutability": "view",
      "type": "function"
    },
    {
      "inputs": [
        {
          "internalType": "address",
          "name": "from",
          "type": "address"
        },
        {
          "internalType": "address",
          "name": "to",
          "type": "address"
        },
        {
          "internalType": "uint256",
          "name": "tokenId",
          "type": "uint256"
        }
      ],
      "name": "transferFrom",
      "outputs": [],
      "stateMutability": "nonpayable",
      "type": "function"
    },
    {
      "inputs": [
        {
          "internalType": "uint256",
          "name": "_listingFee",
          "type": "uint256"
        }
      ],
      "name": "updateListingFee",
      "outputs": [],
      "stateMutability": "payable",
      "type": "function"
    }
  ],
  "bytecode": "0x6080604052666a94d74f4300006009556001600a553480156200002157600080fd5b506040518060400160405280601381526020017f4e6f6e2d46756e6769626c6520546f6b656e73000000000000000000000000008152506040518060400160405280600481526020017f4e4654730000000000000000000000000000000000000000000000000000000081525081600090816200009f919062000375565b508060019081620000b1919062000375565b50505033600b60006101000a81548173ffffffffffffffffffffffffffffffffffffffff021916908373ffffffffffffffffffffffffffffffffffffffff1602179055506200045c565b600081519050919050565b7f4e487b7100000000000000000000000000000000000000000000000000000000600052604160045260246000fd5b7f4e487b7100000000000000000000000000000000000000000000000000000000600052602260045260246000fd5b600060028204905060018216806200017d57607f821691505b60208210810362000193576200019262000135565b5b50919050565b60008190508160005260206000209050919050565b60006020601f8301049050919050565b600082821b905092915050565b600060088302620001fd7fffffffffffffffffffffffffffffffffffffffffffffffffffffffffffffffff82620001be565b620002098683620001be565b95508019841693508086168417925050509392505050565b6000819050919050565b6000819050919050565b600062000256620002506200024a8462000221565b6200022b565b62000221565b9050919050565b6000819050919050565b620002728362000235565b6200028a62000281826200025d565b848454620001cb565b825550505050565b600090565b620002a162000292565b620002ae81848462000267565b505050565b5b81811015620002d657620002ca60008262000297565b600181019050620002b4565b5050565b601f8211156200032557620002ef8162000199565b620002fa84620001ae565b810160208510156200030a578190505b620003226200031985620001ae565b830182620002b3565b50505b505050565b600082821c905092915050565b60006200034a600019846008026200032a565b1980831691505092915050565b600062000365838362000337565b9150826002028217905092915050565b6200038082620000fb565b67ffffffffffffffff8111156200039c576200039b62000106565b5b620003a8825462000164565b620003b5828285620002da565b600060209050601f831160018114620003ed5760008415620003d8578287015190505b620003e4858262000357565b86555062000454565b601f198416620003fd8662000199565b60005b82811015620004275784890151825560018201915060208501945060208101905062000400565b8683101562000447578489015162000443601f89168262000337565b8355505b6001600288020188555050505b505050505050565b614953806200046c6000396000f3fe6080604052600436106101355760003560e01c806370a08231116100ab578063b8fe6abe1161006f578063b8fe6abe1461042d578063be9af53614610458578063c87b56dd14610474578063e219fc75146104b1578063e985e9c5146104cd578063f79d91ae1461050a57610135565b806370a082311461034357806372b3b6201461038057806395d89b41146103b0578063a22cb465146103db578063b88d4fde1461040457610135565b80630f08efe0116100fd5780630f08efe014610233578063202e37401461025e57806323b872dd1461028957806342842e0e146102b257806345f8fa80146102db5780636352211e1461030657610135565b806301ffc9a71461013a57806304dc7c671461017757806306fdde03146101a2578063081812fc146101cd578063095ea7b31461020a575b600080fd5b34801561014657600080fd5b50610161600480360381019061015c91906131b4565b610526565b60405161016e91906131fc565b60405180910390f35b34801561018357600080fd5b5061018c610608565b60405161019991906133aa565b60405180910390f35b3480156101ae57600080fd5b506101b761094a565b6040516101c4919061345c565b60405180910390f35b3480156101d957600080fd5b506101f460048036038101906101ef91906134aa565b6109dc565b60405161020191906134f8565b60405180910390f35b34801561021657600080fd5b50610231600480360381019061022c919061353f565b610a22565b005b34801561023f57600080fd5b50610248610b39565b60405161025591906133aa565b60405180910390f35b34801561026a57600080fd5b50610273610df7565b60405161028091906133aa565b60405180910390f35b34801561029557600080fd5b506102b060048036038101906102ab919061357f565b611139565b005b3480156102be57600080fd5b506102d960048036038101906102d4919061357f565b611199565b005b3480156102e757600080fd5b506102f06111b9565b6040516102fd91906133aa565b60405180910390f35b34801561031257600080fd5b5061032d600480360381019061032891906134aa565b6114fb565b60405161033a91906134f8565b60405180910390f35b34801561034f57600080fd5b5061036a600480360381019061036591906135d2565b611581565b604051610377919061360e565b60405180910390f35b61039a6004803603810190610395919061375e565b611638565b6040516103a7919061360e565b60405180910390f35b3480156103bc57600080fd5b506103c561167a565b6040516103d2919061345c565b60405180910390f35b3480156103e757600080fd5b5061040260048036038101906103fd91906137e6565b61170c565b005b34801561041057600080fd5b5061042b600480360381019061042691906138c7565b611722565b005b34801561043957600080fd5b50610442611784565b60405161044f919061360e565b60405180910390f35b610472600480360381019061046d91906134aa565b61178e565b005b34801561048057600080fd5b5061049b600480360381019061049691906134aa565b611a67565b6040516104a8919061345c565b60405180910390f35b6104cb60048036038101906104c6919061394a565b611b79565b005b3480156104d957600080fd5b506104f460048036038101906104ef919061398a565b611d6e565b60405161050191906131fc565b60405180910390f35b610524600480360381019061051f91906134aa565b611e02565b005b60007f80ac58cd000000000000000000000000000000000000000000000000000000007bffffffffffffffffffffffffffffffffffffffffffffffffffffffff1916827bffffffffffffffffffffffffffffffffffffffffffffffffffffffff191614806105f157507f5b5e139f000000000000000000000000000000000000000000000000000000007bffffffffffffffffffffffffffffffffffffffffffffffffffffffff1916827bffffffffffffffffffffffffffffffffffffffffffffffffffffffff1916145b80610601575061060082611e9c565b5b9050919050565b606060006106166007611f06565b905060008060005b838110156106be573373ffffffffffffffffffffffffffffffffffffffff16600c600060018461064e91906139f9565b815260200190815260200160002060030160009054906101000a900473ffffffffffffffffffffffffffffffffffffffff1673ffffffffffffffffffffffffffffffffffffffff16036106ab576001836106a891906139f9565b92505b80806106b690613a2d565b91505061061e565b5060008267ffffffffffffffff8111156106db576106da613633565b5b60405190808252806020026020018201604052801561071457816020015b6107016130ce565b8152602001906001900390816106f95790505b50905060005b8481101561093f573373ffffffffffffffffffffffffffffffffffffffff16600c600060018461074a91906139f9565b815260200190815260200160002060020160009054906101000a900473ffffffffffffffffffffffffffffffffffffffff1673ffffffffffffffffffffffffffffffffffffffff160361092c5760006001826107a691906139f9565b90506000600c60008381526020019081526020016000209050806040518060c0016040529081600082015481526020016001820160009054906101000a900473ffffffffffffffffffffffffffffffffffffffff1673ffffffffffffffffffffffffffffffffffffffff1673ffffffffffffffffffffffffffffffffffffffff1681526020016002820160009054906101000a900473ffffffffffffffffffffffffffffffffffffffff1673ffffffffffffffffffffffffffffffffffffffff1673ffffffffffffffffffffffffffffffffffffffff1681526020016003820160009054906101000a900473ffffffffffffffffffffffffffffffffffffffff1673ffffffffffffffffffffffffffffffffffffffff1673ffffffffffffffffffffffffffffffffffffffff168152602001600482015481526020016005820160009054906101000a900460ff16151515158152505084868151811061090f5761090e613a75565b5b602002602001018190525060018561092791906139f9565b945050505b808061093790613a2d565b91505061071a565b508094505050505090565b60606000805461095990613ad3565b80601f016020809104026020016040519081016040528092919081815260200182805461098590613ad3565b80156109d25780601f106109a7576101008083540402835291602001916109d2565b820191906000526020600020905b8154815290600101906020018083116109b557829003601f168201915b5050505050905090565b60006109e782611f14565b6004600083815260200190815260200160002060009054906101000a900473ffffffffffffffffffffffffffffffffffffffff169050919050565b6000610a2d826114fb565b90508073ffffffffffffffffffffffffffffffffffffffff168373ffffffffffffffffffffffffffffffffffffffff1603610a9d576040517f08c379a0000000000000000000000000000000000000000000000000000000008152600401610a9490613b76565b60405180910390fd5b8073ffffffffffffffffffffffffffffffffffffffff16610abc611f5f565b73ffffffffffffffffffffffffffffffffffffffff161480610aeb5750610aea81610ae5611f5f565b611d6e565b5b610b2a576040517f08c379a0000000000000000000000000000000000000000000000000000000008152600401610b2190613c08565b60405180910390fd5b610b348383611f67565b505050565b60606000610b476007611f06565b90506000610b556008611f06565b610b5f6007611f06565b610b699190613c28565b90506000808267ffffffffffffffff811115610b8857610b87613633565b5b604051908082528060200260200182016040528015610bc157816020015b610bae6130ce565b815260200190600190039081610ba65790505b50905060005b84811015610dec573073ffffffffffffffffffffffffffffffffffffffff16600c6000600184610bf791906139f9565b815260200190815260200160002060020160009054906101000a900473ffffffffffffffffffffffffffffffffffffffff1673ffffffffffffffffffffffffffffffffffffffff1603610dd9576000600182610c5391906139f9565b90506000600c60008381526020019081526020016000209050806040518060c0016040529081600082015481526020016001820160009054906101000a900473ffffffffffffffffffffffffffffffffffffffff1673ffffffffffffffffffffffffffffffffffffffff1673ffffffffffffffffffffffffffffffffffffffff1681526020016002820160009054906101000a900473ffffffffffffffffffffffffffffffffffffffff1673ffffffffffffffffffffffffffffffffffffffff1673ffffffffffffffffffffffffffffffffffffffff1681526020016003820160009054906101000a900473ffffffffffffffffffffffffffffffffffffffff1673ffffffffffffffffffffffffffffffffffffffff1673ffffffffffffffffffffffffffffffffffffffff168152602001600482015481526020016005820160009054906101000a900460ff161515151581525050848681518110610dbc57610dbb613a75565b5b6020026020010181905250600185610dd491906139f9565b945050505b8080610de490613a2d565b915050610bc7565b508094505050505090565b60606000610e056007611f06565b905060008060005b83811015610ead573373ffffffffffffffffffffffffffffffffffffffff16600c6000600184610e3d91906139f9565b815260200190815260200160002060020160009054906101000a900473ffffffffffffffffffffffffffffffffffffffff1673ffffffffffffffffffffffffffffffffffffffff1603610e9a57600183610e9791906139f9565b92505b8080610ea590613a2d565b915050610e0d565b5060008267ffffffffffffffff811115610eca57610ec9613633565b5b604051908082528060200260200182016040528015610f0357816020015b610ef06130ce565b815260200190600190039081610ee85790505b50905060005b8481101561112e573373ffffffffffffffffffffffffffffffffffffffff16600c6000600184610f3991906139f9565b815260200190815260200160002060020160009054906101000a900473ffffffffffffffffffffffffffffffffffffffff1673ffffffffffffffffffffffffffffffffffffffff160361111b576000600182610f9591906139f9565b90506000600c60008381526020019081526020016000209050806040518060c0016040529081600082015481526020016001820160009054906101000a900473ffffffffffffffffffffffffffffffffffffffff1673ffffffffffffffffffffffffffffffffffffffff1673ffffffffffffffffffffffffffffffffffffffff1681526020016002820160009054906101000a900473ffffffffffffffffffffffffffffffffffffffff1673ffffffffffffffffffffffffffffffffffffffff1673ffffffffffffffffffffffffffffffffffffffff1681526020016003820160009054906101000a900473ffffffffffffffffffffffffffffffffffffffff1673ffffffffffffffffffffffffffffffffffffffff1673ffffffffffffffffffffffffffffffffffffffff168152602001600482015481526020016005820160009054906101000a900460ff1615151515815250508486815181106110fe576110fd613a75565b5b602002602001018190525060018561111691906139f9565b945050505b808061112690613a2d565b915050610f09565b508094505050505090565b61114a611144611f5f565b82612020565b611189576040517f08c379a000000000000000000000000000000000000000000000000000000000815260040161118090613cce565b60405180910390fd5b6111948383836120b5565b505050565b6111b483838360405180602001604052806000815250611722565b505050565b606060006111c76007611f06565b905060008060005b8381101561126f573373ffffffffffffffffffffffffffffffffffffffff16600c60006001846111ff91906139f9565b815260200190815260200160002060010160009054906101000a900473ffffffffffffffffffffffffffffffffffffffff1673ffffffffffffffffffffffffffffffffffffffff160361125c5760018361125991906139f9565b92505b808061126790613a2d565b9150506111cf565b5060008267ffffffffffffffff81111561128c5761128b613633565b5b6040519080825280602002602001820160405280156112c557816020015b6112b26130ce565b8152602001906001900390816112aa5790505b50905060005b848110156114f0573373ffffffffffffffffffffffffffffffffffffffff16600c60006001846112fb91906139f9565b815260200190815260200160002060010160009054906101000a900473ffffffffffffffffffffffffffffffffffffffff1673ffffffffffffffffffffffffffffffffffffffff16036114dd57600060018261135791906139f9565b90506000600c60008381526020019081526020016000209050806040518060c0016040529081600082015481526020016001820160009054906101000a900473ffffffffffffffffffffffffffffffffffffffff1673ffffffffffffffffffffffffffffffffffffffff1673ffffffffffffffffffffffffffffffffffffffff1681526020016002820160009054906101000a900473ffffffffffffffffffffffffffffffffffffffff1673ffffffffffffffffffffffffffffffffffffffff1673ffffffffffffffffffffffffffffffffffffffff1681526020016003820160009054906101000a900473ffffffffffffffffffffffffffffffffffffffff1673ffffffffffffffffffffffffffffffffffffffff1673ffffffffffffffffffffffffffffffffffffffff168152602001600482015481526020016005820160009054906101000a900460ff1615151515815250508486815181106114c0576114bf613a75565b5b60200260200101819052506001856114d891906139f9565b945050505b80806114e890613a2d565b9150506112cb565b508094505050505090565b600080611507836123ae565b9050600073ffffffffffffffffffffffffffffffffffffffff168173ffffffffffffffffffffffffffffffffffffffff1603611578576040517f08c379a000000000000000000000000000000000000000000000000000000000815260040161156f90613d3a565b60405180910390fd5b80915050919050565b60008073ffffffffffffffffffffffffffffffffffffffff168273ffffffffffffffffffffffffffffffffffffffff16036115f1576040517f08c379a00000000000000000000000000000000000000000000000000000000081526004016115e890613dcc565b60405180910390fd5b600360008373ffffffffffffffffffffffffffffffffffffffff1673ffffffffffffffffffffffffffffffffffffffff168152602001908152602001600020549050919050565b600061164460076123eb565b60006116506007611f06565b905061165c3382612401565b611666818561261e565b611670818461268b565b8091505092915050565b60606001805461168990613ad3565b80601f01602080910402602001604051908101604052809291908181526020018280546116b590613ad3565b80156117025780601f106116d757610100808354040283529160200191611702565b820191906000526020600020905b8154815290600101906020018083116116e557829003601f168201915b5050505050905090565b61171e611717611f5f565b83836128f3565b5050565b61173361172d611f5f565b83612020565b611772576040517f08c379a000000000000000000000000000000000000000000000000000000000815260040161176990613cce565b60405180910390fd5b61177e84848484612a5f565b50505050565b6000600954905090565b6000600c60008381526020019081526020016000206004015490508034146117eb576040517f08c379a00000000000000000000000000000000000000000000000000000000081526004016117e290613e5e565b60405180910390fd5b6000600a54346117fb9190613e7e565b90506000818361180b9190613c28565b9050600c600085815260200190815260200160002060030160009054906101000a900473ffffffffffffffffffffffffffffffffffffffff1673ffffffffffffffffffffffffffffffffffffffff166108fc839081150290604051600060405180830381858888f19350505050158015611889573d6000803e3d6000fd5b50600c600085815260200190815260200160002060010160009054906101000a900473ffffffffffffffffffffffffffffffffffffffff1673ffffffffffffffffffffffffffffffffffffffff166108fc829081150290604051600060405180830381858888f19350505050158015611906573d6000803e3d6000fd5b50600b60009054906101000a900473ffffffffffffffffffffffffffffffffffffffff1673ffffffffffffffffffffffffffffffffffffffff166108fc6009549081150290604051600060405180830381858888f19350505050158015611971573d6000803e3d6000fd5b5061197c60086123eb565b6119873033866120b5565b33600c600086815260200190815260200160002060020160006101000a81548173ffffffffffffffffffffffffffffffffffffffff021916908373ffffffffffffffffffffffffffffffffffffffff1602179055506001600c600086815260200190815260200160002060050160006101000a81548160ff0219169083151502179055506000600c600086815260200190815260200160002060010160006101000a81548173ffffffffffffffffffffffffffffffffffffffff021916908373ffffffffffffffffffffffffffffffffffffffff16021790555050505050565b6060611a7282611f14565b6000600660008481526020019081526020016000208054611a9290613ad3565b80601f0160208091040260200160405190810160405280929190818152602001828054611abe90613ad3565b8015611b0b5780601f10611ae057610100808354040283529160200191611b0b565b820191906000526020600020905b815481529060010190602001808311611aee57829003601f168201915b505050505090506000611b1c612abb565b90506000815103611b31578192505050611b74565b600082511115611b66578082604051602001611b4e929190613efc565b60405160208183030381529060405292505050611b74565b611b6f84612ad2565b925050505b919050565b3373ffffffffffffffffffffffffffffffffffffffff16600c600084815260200190815260200160002060020160009054906101000a900473ffffffffffffffffffffffffffffffffffffffff1673ffffffffffffffffffffffffffffffffffffffff1614611c1d576040517f08c379a0000000000000000000000000000000000000000000000000000000008152600401611c1490613f92565b60405180910390fd5b6009543414611c61576040517f08c379a0000000000000000000000000000000000000000000000000000000008152600401611c5890614024565b60405180910390fd5b6000600c600084815260200190815260200160002060050160006101000a81548160ff02191690831515021790555080600c60008481526020019081526020016000206004018190555033600c600084815260200190815260200160002060010160006101000a81548173ffffffffffffffffffffffffffffffffffffffff021916908373ffffffffffffffffffffffffffffffffffffffff16021790555030600c600084815260200190815260200160002060020160006101000a81548173ffffffffffffffffffffffffffffffffffffffff021916908373ffffffffffffffffffffffffffffffffffffffff160217905550611d5f6008612b3a565b611d6a3330846120b5565b5050565b6000600560008473ffffffffffffffffffffffffffffffffffffffff1673ffffffffffffffffffffffffffffffffffffffff16815260200190815260200160002060008373ffffffffffffffffffffffffffffffffffffffff1673ffffffffffffffffffffffffffffffffffffffff16815260200190815260200160002060009054906101000a900460ff16905092915050565b600b60009054906101000a900473ffffffffffffffffffffffffffffffffffffffff1673ffffffffffffffffffffffffffffffffffffffff163373ffffffffffffffffffffffffffffffffffffffff1614611e92576040517f08c379a0000000000000000000000000000000000000000000000000000000008152600401611e89906140b6565b60405180910390fd5b8060098190555050565b60007f01ffc9a7000000000000000000000000000000000000000000000000000000007bffffffffffffffffffffffffffffffffffffffffffffffffffffffff1916827bffffffffffffffffffffffffffffffffffffffffffffffffffffffff1916149050919050565b600081600001549050919050565b611f1d81612b96565b611f5c576040517f08c379a0000000000000000000000000000000000000000000000000000000008152600401611f5390613d3a565b60405180910390fd5b50565b600033905090565b816004600083815260200190815260200160002060006101000a81548173ffffffffffffffffffffffffffffffffffffffff021916908373ffffffffffffffffffffffffffffffffffffffff160217905550808273ffffffffffffffffffffffffffffffffffffffff16611fda836114fb565b73ffffffffffffffffffffffffffffffffffffffff167f8c5be1e5ebec7d5bd14f71427d1e84f3dd0314c0f7b2291e5b200ac8c7c3b92560405160405180910390a45050565b60008061202c836114fb565b90508073ffffffffffffffffffffffffffffffffffffffff168473ffffffffffffffffffffffffffffffffffffffff16148061206e575061206d8185611d6e565b5b806120ac57508373ffffffffffffffffffffffffffffffffffffffff16612094846109dc565b73ffffffffffffffffffffffffffffffffffffffff16145b91505092915050565b8273ffffffffffffffffffffffffffffffffffffffff166120d5826114fb565b73ffffffffffffffffffffffffffffffffffffffff161461212b576040517f08c379a000000000000000000000000000000000000000000000000000000000815260040161212290614148565b60405180910390fd5b600073ffffffffffffffffffffffffffffffffffffffff168273ffffffffffffffffffffffffffffffffffffffff160361219a576040517f08c379a0000000000000000000000000000000000000000000000000000000008152600401612191906141da565b60405180910390fd5b6121a78383836001612bd7565b8273ffffffffffffffffffffffffffffffffffffffff166121c7826114fb565b73ffffffffffffffffffffffffffffffffffffffff161461221d576040517f08c379a000000000000000000000000000000000000000000000000000000000815260040161221490614148565b60405180910390fd5b6004600082815260200190815260200160002060006101000a81549073ffffffffffffffffffffffffffffffffffffffff02191690556001600360008573ffffffffffffffffffffffffffffffffffffffff1673ffffffffffffffffffffffffffffffffffffffff168152602001908152602001600020600082825403925050819055506001600360008473ffffffffffffffffffffffffffffffffffffffff1673ffffffffffffffffffffffffffffffffffffffff16815260200190815260200160002060008282540192505081905550816002600083815260200190815260200160002060006101000a81548173ffffffffffffffffffffffffffffffffffffffff021916908373ffffffffffffffffffffffffffffffffffffffff160217905550808273ffffffffffffffffffffffffffffffffffffffff168473ffffffffffffffffffffffffffffffffffffffff167fddf252ad1be2c89b69c2b068fc378daa952ba7f163c4a11628f55a4df523b3ef60405160405180910390a46123a98383836001612cfd565b505050565b60006002600083815260200190815260200160002060009054906101000a900473ffffffffffffffffffffffffffffffffffffffff169050919050565b6001816000016000828254019250508190555050565b600073ffffffffffffffffffffffffffffffffffffffff168273ffffffffffffffffffffffffffffffffffffffff1603612470576040517f08c379a000000000000000000000000000000000000000000000000000000000815260040161246790614246565b60405180910390fd5b61247981612b96565b156124b9576040517f08c379a00000000000000000000000000000000000000000000000000000000081526004016124b0906142b2565b60405180910390fd5b6124c7600083836001612bd7565b6124d081612b96565b15612510576040517f08c379a0000000000000000000000000000000000000000000000000000000008152600401612507906142b2565b60405180910390fd5b6001600360008473ffffffffffffffffffffffffffffffffffffffff1673ffffffffffffffffffffffffffffffffffffffff16815260200190815260200160002060008282540192505081905550816002600083815260200190815260200160002060006101000a81548173ffffffffffffffffffffffffffffffffffffffff021916908373ffffffffffffffffffffffffffffffffffffffff160217905550808273ffffffffffffffffffffffffffffffffffffffff16600073ffffffffffffffffffffffffffffffffffffffff167fddf252ad1be2c89b69c2b068fc378daa952ba7f163c4a11628f55a4df523b3ef60405160405180910390a461261a600083836001612cfd565b5050565b61262782612b96565b612666576040517f08c379a000000000000000000000000000000000000000000000000000000000815260040161265d90614344565b60405180910390fd5b806006600084815260200190815260200160002090816126869190614510565b505050565b600081116126ce576040517f08c379a00000000000000000000000000000000000000000000000000000000081526004016126c59061462e565b60405180910390fd5b6009543414612712576040517f08c379a000000000000000000000000000000000000000000000000000000000815260040161270990614024565b60405180910390fd5b6040518060c001604052808381526020013373ffffffffffffffffffffffffffffffffffffffff1681526020013073ffffffffffffffffffffffffffffffffffffffff1681526020013373ffffffffffffffffffffffffffffffffffffffff16815260200182815260200160001515815250600c60008481526020019081526020016000206000820151816000015560208201518160010160006101000a81548173ffffffffffffffffffffffffffffffffffffffff021916908373ffffffffffffffffffffffffffffffffffffffff16021790555060408201518160020160006101000a81548173ffffffffffffffffffffffffffffffffffffffff021916908373ffffffffffffffffffffffffffffffffffffffff16021790555060608201518160030160006101000a81548173ffffffffffffffffffffffffffffffffffffffff021916908373ffffffffffffffffffffffffffffffffffffffff1602179055506080820151816004015560a08201518160050160006101000a81548160ff0219169083151502179055509050506128ae3330846120b5565b817fd6b5a2ea507e15741fd76fed025e0dfe9294bea94de5e3359d76d718efd991bd3330338560006040516128e795949392919061464e565b60405180910390a25050565b8173ffffffffffffffffffffffffffffffffffffffff168373ffffffffffffffffffffffffffffffffffffffff1603612961576040517f08c379a0000000000000000000000000000000000000000000000000000000008152600401612958906146ed565b60405180910390fd5b80600560008573ffffffffffffffffffffffffffffffffffffffff1673ffffffffffffffffffffffffffffffffffffffff16815260200190815260200160002060008473ffffffffffffffffffffffffffffffffffffffff1673ffffffffffffffffffffffffffffffffffffffff16815260200190815260200160002060006101000a81548160ff0219169083151502179055508173ffffffffffffffffffffffffffffffffffffffff168373ffffffffffffffffffffffffffffffffffffffff167f17307eab39ab6107e8899845ad3d59bd9653f200f220920489ca2b5937696c3183604051612a5291906131fc565b60405180910390a3505050565b612a6a8484846120b5565b612a7684848484612d03565b612ab5576040517f08c379a0000000000000000000000000000000000000000000000000000000008152600401612aac9061477f565b60405180910390fd5b50505050565b606060405180602001604052806000815250905090565b6060612add82611f14565b6000612ae7612abb565b90506000815111612b075760405180602001604052806000815250612b32565b80612b1184612e8a565b604051602001612b22929190613efc565b6040516020818303038152906040525b915050919050565b60008160000154905060008111612b86576040517f08c379a0000000000000000000000000000000000000000000000000000000008152600401612b7d906147eb565b60405180910390fd5b6001810382600001819055505050565b60008073ffffffffffffffffffffffffffffffffffffffff16612bb8836123ae565b73ffffffffffffffffffffffffffffffffffffffff1614159050919050565b6001811115612cf757600073ffffffffffffffffffffffffffffffffffffffff168473ffffffffffffffffffffffffffffffffffffffff1614612c6b5780600360008673ffffffffffffffffffffffffffffffffffffffff1673ffffffffffffffffffffffffffffffffffffffff1681526020019081526020016000206000828254612c639190613c28565b925050819055505b600073ffffffffffffffffffffffffffffffffffffffff168373ffffffffffffffffffffffffffffffffffffffff1614612cf65780600360008573ffffffffffffffffffffffffffffffffffffffff1673ffffffffffffffffffffffffffffffffffffffff1681526020019081526020016000206000828254612cee91906139f9565b925050819055505b5b50505050565b50505050565b6000612d248473ffffffffffffffffffffffffffffffffffffffff16612f58565b15612e7d578373ffffffffffffffffffffffffffffffffffffffff1663150b7a02612d4d611f5f565b8786866040518563ffffffff1660e01b8152600401612d6f9493929190614860565b6020604051808303816000875af1925050508015612dab57506040513d601f19601f82011682018060405250810190612da891906148c1565b60015b612e2d573d8060008114612ddb576040519150601f19603f3d011682016040523d82523d6000602084013e612de0565b606091505b506000815103612e25576040517f08c379a0000000000000000000000000000000000000000000000000000000008152600401612e1c9061477f565b60405180910390fd5b805181602001fd5b63150b7a0260e01b7bffffffffffffffffffffffffffffffffffffffffffffffffffffffff1916817bffffffffffffffffffffffffffffffffffffffffffffffffffffffff191614915050612e82565b600190505b949350505050565b606060006001612e9984612f7b565b01905060008167ffffffffffffffff811115612eb857612eb7613633565b5b6040519080825280601f01601f191660200182016040528015612eea5781602001600182028036833780820191505090505b509050600082602001820190505b600115612f4d578080600190039150507f3031323334353637383961626364656600000000000000000000000000000000600a86061a8153600a8581612f4157612f406148ee565b5b04945060008503612ef8575b819350505050919050565b6000808273ffffffffffffffffffffffffffffffffffffffff163b119050919050565b600080600090507a184f03e93ff9f4daa797ed6e38ed64bf6a1f0100000000000000008310612fd9577a184f03e93ff9f4daa797ed6e38ed64bf6a1f0100000000000000008381612fcf57612fce6148ee565b5b0492506040810190505b6d04ee2d6d415b85acef81000000008310613016576d04ee2d6d415b85acef8100000000838161300c5761300b6148ee565b5b0492506020810190505b662386f26fc10000831061304557662386f26fc10000838161303b5761303a6148ee565b5b0492506010810190505b6305f5e100831061306e576305f5e1008381613064576130636148ee565b5b0492506008810190505b6127108310613093576127108381613089576130886148ee565b5b0492506004810190505b606483106130b657606483816130ac576130ab6148ee565b5b0492506002810190505b600a83106130c5576001810190505b80915050919050565b6040518060c0016040528060008152602001600073ffffffffffffffffffffffffffffffffffffffff168152602001600073ffffffffffffffffffffffffffffffffffffffff168152602001600073ffffffffffffffffffffffffffffffffffffffff168152602001600081526020016000151581525090565b6000604051905090565b600080fd5b600080fd5b60007fffffffff0000000000000000000000000000000000000000000000000000000082169050919050565b6131918161315c565b811461319c57600080fd5b50565b6000813590506131ae81613188565b92915050565b6000602082840312156131ca576131c9613152565b5b60006131d88482850161319f565b91505092915050565b60008115159050919050565b6131f6816131e1565b82525050565b600060208201905061321160008301846131ed565b92915050565b600081519050919050565b600082825260208201905092915050565b6000819050602082019050919050565b6000819050919050565b61325681613243565b82525050565b600073ffffffffffffffffffffffffffffffffffffffff82169050919050565b60006132878261325c565b9050919050565b6132978161327c565b82525050565b6132a6816131e1565b82525050565b60c0820160008201516132c2600085018261324d565b5060208201516132d5602085018261328e565b5060408201516132e8604085018261328e565b5060608201516132fb606085018261328e565b50608082015161330e608085018261324d565b5060a082015161332160a085018261329d565b50505050565b600061333383836132ac565b60c08301905092915050565b6000602082019050919050565b600061335782613217565b6133618185613222565b935061336c83613233565b8060005b8381101561339d5781516133848882613327565b975061338f8361333f565b925050600181019050613370565b5085935050505092915050565b600060208201905081810360008301526133c4818461334c565b905092915050565b600081519050919050565b600082825260208201905092915050565b60005b838110156134065780820151818401526020810190506133eb565b60008484015250505050565b6000601f19601f8301169050919050565b600061342e826133cc565b61343881856133d7565b93506134488185602086016133e8565b61345181613412565b840191505092915050565b600060208201905081810360008301526134768184613423565b905092915050565b61348781613243565b811461349257600080fd5b50565b6000813590506134a48161347e565b92915050565b6000602082840312156134c0576134bf613152565b5b60006134ce84828501613495565b91505092915050565b60006134e28261325c565b9050919050565b6134f2816134d7565b82525050565b600060208201905061350d60008301846134e9565b92915050565b61351c816134d7565b811461352757600080fd5b50565b60008135905061353981613513565b92915050565b6000806040838503121561355657613555613152565b5b60006135648582860161352a565b925050602061357585828601613495565b9150509250929050565b60008060006060848603121561359857613597613152565b5b60006135a68682870161352a565b93505060206135b78682870161352a565b92505060406135c886828701613495565b9150509250925092565b6000602082840312156135e8576135e7613152565b5b60006135f68482850161352a565b91505092915050565b61360881613243565b82525050565b600060208201905061362360008301846135ff565b92915050565b600080fd5b600080fd5b7f4e487b7100000000000000000000000000000000000000000000000000000000600052604160045260246000fd5b61366b82613412565b810181811067ffffffffffffffff8211171561368a57613689613633565b5b80604052505050565b600061369d613148565b90506136a98282613662565b919050565b600067ffffffffffffffff8211156136c9576136c8613633565b5b6136d282613412565b9050602081019050919050565b82818337600083830152505050565b60006137016136fc846136ae565b613693565b90508281526020810184848401111561371d5761371c61362e565b5b6137288482856136df565b509392505050565b600082601f83011261374557613744613629565b5b81356137558482602086016136ee565b91505092915050565b6000806040838503121561377557613774613152565b5b600083013567ffffffffffffffff81111561379357613792613157565b5b61379f85828601613730565b92505060206137b085828601613495565b9150509250929050565b6137c3816131e1565b81146137ce57600080fd5b50565b6000813590506137e0816137ba565b92915050565b600080604083850312156137fd576137fc613152565b5b600061380b8582860161352a565b925050602061381c858286016137d1565b9150509250929050565b600067ffffffffffffffff82111561384157613840613633565b5b61384a82613412565b9050602081019050919050565b600061386a61386584613826565b613693565b9050828152602081018484840111156138865761388561362e565b5b6138918482856136df565b509392505050565b600082601f8301126138ae576138ad613629565b5b81356138be848260208601613857565b91505092915050565b600080600080608085870312156138e1576138e0613152565b5b60006138ef8782880161352a565b94505060206139008782880161352a565b935050604061391187828801613495565b925050606085013567ffffffffffffffff81111561393257613931613157565b5b61393e87828801613899565b91505092959194509250565b6000806040838503121561396157613960613152565b5b600061396f85828601613495565b925050602061398085828601613495565b9150509250929050565b600080604083850312156139a1576139a0613152565b5b60006139af8582860161352a565b92505060206139c08582860161352a565b9150509250929050565b7f4e487b7100000000000000000000000000000000000000000000000000000000600052601160045260246000fd5b6000613a0482613243565b9150613a0f83613243565b9250828201905080821115613a2757613a266139ca565b5b92915050565b6000613a3882613243565b91507fffffffffffffffffffffffffffffffffffffffffffffffffffffffffffffffff8203613a6a57613a696139ca565b5b600182019050919050565b7f4e487b7100000000000000000000000000000000000000000000000000000000600052603260045260246000fd5b7f4e487b7100000000000000000000000000000000000000000000000000000000600052602260045260246000fd5b60006002820490506001821680613aeb57607f821691505b602082108103613afe57613afd613aa4565b5b50919050565b7f4552433732313a20617070726f76616c20746f2063757272656e74206f776e6560008201527f7200000000000000000000000000000000000000000000000000000000000000602082015250565b6000613b606021836133d7565b9150613b6b82613b04565b604082019050919050565b60006020820190508181036000830152613b8f81613b53565b9050919050565b7f4552433732313a20617070726f76652063616c6c6572206973206e6f7420746f60008201527f6b656e206f776e6572206f7220617070726f76656420666f7220616c6c000000602082015250565b6000613bf2603d836133d7565b9150613bfd82613b96565b604082019050919050565b60006020820190508181036000830152613c2181613be5565b9050919050565b6000613c3382613243565b9150613c3e83613243565b9250828203905081811115613c5657613c556139ca565b5b92915050565b7f4552433732313a2063616c6c6572206973206e6f7420746f6b656e206f776e6560008201527f72206f7220617070726f76656400000000000000000000000000000000000000602082015250565b6000613cb8602d836133d7565b9150613cc382613c5c565b604082019050919050565b60006020820190508181036000830152613ce781613cab565b9050919050565b7f4552433732313a20696e76616c696420746f6b656e2049440000000000000000600082015250565b6000613d246018836133d7565b9150613d2f82613cee565b602082019050919050565b60006020820190508181036000830152613d5381613d17565b9050919050565b7f4552433732313a2061646472657373207a65726f206973206e6f74206120766160008201527f6c6964206f776e65720000000000000000000000000000000000000000000000602082015250565b6000613db66029836133d7565b9150613dc182613d5a565b604082019050919050565b60006020820190508181036000830152613de581613da9565b9050919050565b7f506c65617365207375626d6974207468652061736b696e67207072696365206960008201527f6e206f7264657220746f20636f6d706c65746520746865207075726368617365602082015250565b6000613e486040836133d7565b9150613e5382613dec565b604082019050919050565b60006020820190508181036000830152613e7781613e3b565b9050919050565b6000613e8982613243565b9150613e9483613243565b9250828202613ea281613243565b91508282048414831517613eb957613eb86139ca565b5b5092915050565b600081905092915050565b6000613ed6826133cc565b613ee08185613ec0565b9350613ef08185602086016133e8565b80840191505092915050565b6000613f088285613ecb565b9150613f148284613ecb565b91508190509392505050565b7f4f6e6c79206974656d206f776e65722063616e20706572666f726d207468697360008201527f206f7065726174696f6e00000000000000000000000000000000000000000000602082015250565b6000613f7c602a836133d7565b9150613f8782613f20565b604082019050919050565b60006020820190508181036000830152613fab81613f6f565b9050919050565b7f5072696365206d75737420626520657175616c20746f206c697374696e67206660008201527f6565000000000000000000000000000000000000000000000000000000000000602082015250565b600061400e6022836133d7565b915061401982613fb2565b604082019050919050565b6000602082019050818103600083015261403d81614001565b9050919050565b7f6f6e6c79206f776e6572206f6620746865206d61726b6574706c61636520636160008201527f6e206368616e676520746865206c697374696e67206665650000000000000000602082015250565b60006140a06038836133d7565b91506140ab82614044565b604082019050919050565b600060208201905081810360008301526140cf81614093565b9050919050565b7f4552433732313a207472616e736665722066726f6d20696e636f72726563742060008201527f6f776e6572000000000000000000000000000000000000000000000000000000602082015250565b60006141326025836133d7565b915061413d826140d6565b604082019050919050565b6000602082019050818103600083015261416181614125565b9050919050565b7f4552433732313a207472616e7366657220746f20746865207a65726f2061646460008201527f7265737300000000000000000000000000000000000000000000000000000000602082015250565b60006141c46024836133d7565b91506141cf82614168565b604082019050919050565b600060208201905081810360008301526141f3816141b7565b9050919050565b7f4552433732313a206d696e7420746f20746865207a65726f2061646472657373600082015250565b60006142306020836133d7565b915061423b826141fa565b602082019050919050565b6000602082019050818103600083015261425f81614223565b9050919050565b7f4552433732313a20746f6b656e20616c7265616479206d696e74656400000000600082015250565b600061429c601c836133d7565b91506142a782614266565b602082019050919050565b600060208201905081810360008301526142cb8161428f565b9050919050565b7f45524337323155524953746f726167653a2055524920736574206f66206e6f6e60008201527f6578697374656e7420746f6b656e000000000000000000000000000000000000602082015250565b600061432e602e836133d7565b9150614339826142d2565b604082019050919050565b6000602082019050818103600083015261435d81614321565b9050919050565b60008190508160005260206000209050919050565b60006020601f8301049050919050565b600082821b905092915050565b6000600883026143c67fffffffffffffffffffffffffffffffffffffffffffffffffffffffffffffffff82614389565b6143d08683614389565b95508019841693508086168417925050509392505050565b6000819050919050565b600061440d61440861440384613243565b6143e8565b613243565b9050919050565b6000819050919050565b614427836143f2565b61443b61443382614414565b848454614396565b825550505050565b600090565b614450614443565b61445b81848461441e565b505050565b5b8181101561447f57614474600082614448565b600181019050614461565b5050565b601f8211156144c45761449581614364565b61449e84614379565b810160208510156144ad578190505b6144c16144b985614379565b830182614460565b50505b505050565b600082821c905092915050565b60006144e7600019846008026144c9565b1980831691505092915050565b600061450083836144d6565b9150826002028217905092915050565b614519826133cc565b67ffffffffffffffff81111561453257614531613633565b5b61453c8254613ad3565b614547828285614483565b600060209050601f83116001811461457a5760008415614568578287015190505b61457285826144f4565b8655506145da565b601f19841661458886614364565b60005b828110156145b05784890151825560018201915060208501945060208101905061458b565b868310156145cd57848901516145c9601f8916826144d6565b8355505b6001600288020188555050505b505050505050565b7f5072696365206d757374206265206174206c6561737420312077656900000000600082015250565b6000614618601c836133d7565b9150614623826145e2565b602082019050919050565b600060208201905081810360008301526146478161460b565b9050919050565b600060a08201905061466360008301886134e9565b61467060208301876134e9565b61467d60408301866134e9565b61468a60608301856135ff565b61469760808301846131ed565b9695505050505050565b7f4552433732313a20617070726f766520746f2063616c6c657200000000000000600082015250565b60006146d76019836133d7565b91506146e2826146a1565b602082019050919050565b60006020820190508181036000830152614706816146ca565b9050919050565b7f4552433732313a207472616e7366657220746f206e6f6e20455243373231526560008201527f63656976657220696d706c656d656e7465720000000000000000000000000000602082015250565b60006147696032836133d7565b91506147748261470d565b604082019050919050565b600060208201905081810360008301526147988161475c565b9050919050565b7f436f756e7465723a2064656372656d656e74206f766572666c6f770000000000600082015250565b60006147d5601b836133d7565b91506147e08261479f565b602082019050919050565b60006020820190508181036000830152614804816147c8565b9050919050565b600081519050919050565b600082825260208201905092915050565b60006148328261480b565b61483c8185614816565b935061484c8185602086016133e8565b61485581613412565b840191505092915050565b600060808201905061487560008301876134e9565b61488260208301866134e9565b61488f60408301856135ff565b81810360608301526148a18184614827565b905095945050505050565b6000815190506148bb81613188565b92915050565b6000602082840312156148d7576148d6613152565b5b60006148e5848285016148ac565b91505092915050565b7f4e487b7100000000000000000000000000000000000000000000000000000000600052601260045260246000fdfea2646970667358221220978e5d0529cfffb6caf89caa466a7614742bb806a5418e78bdb41aa3564651c264736f6c63430008110033",
  "linkReferences": {},
  "deployedLinkReferences": {}
}